:020000040800F2
:10000000005000209D120008251200082712000849
:1000100000000000000000000000000000000000E0
:10002000000000000000000000000000291200088D
:1000300000000000000000002B1200082D12000834
:10004000ED120008ED120008ED120008ED12000894
:10005000ED120008ED120008ED120008ED12000884
:10006000ED120008ED120008ED120008ED12000874
:10007000ED120008ED120008ED120008ED12000864
:1000800031120008ED120008ED1200080000000017
:10009000ED120008ED120008ED120008ED12000844
:1000A000ED120008ED120008ED120008ED12000834
:1000B000ED120008ED120008ED120008ED12000824
:1000C00010B5064C2378002B07D1054B002B02D02E
:1000D000044800E000BF0123237010BD040000208D
:1000E0000000000048130008044B10B5002B03D09B
:1000F0000349044800E000BF10BDC04600000000F6
:10010000080000204813000802B47146490849005D
:10011000095C49008E4402BC7047C0460022430877
:100120008B4274D303098B425FD3030A8B4244D3BF
:10013000030B8B4228D3030C8B420DD3FF22090201
:1001400012BA030C8B4202D31212090265D0030BC0
:100150008B4219D300E0090AC30B8B4201D3CB03B6
:10016000C01A5241830B8B4201D38B03C01A5241F8
:10017000430B8B4201D34B03C01A5241030B8B42FA
:1001800001D30B03C01A5241C30A8B4201D3CB02E5
:10019000C01A5241830A8B4201D38B02C01A5241CA
:1001A000430A8B4201D34B02C01A5241030A8B42CD
:1001B00001D30B02C01A5241CDD2C3098B4201D3E5
:1001C000CB01C01A524183098B4201D38B01C01A63
:1001D000524143098B4201D34B01C01A52410309DA
:1001E0008B4201D30B01C01A5241C3088B4201D389
:1001F000CB00C01A524183088B4201D38B00C01A36
:10020000524143088B4201D34B00C01A5241411A5C
:1002100000D20146524110467047FFE701B5002069
:1002200000F006F802BDC0460029F7D076E7704717
:100230007047C0464023084A10B5116800200B43A0
:10024000136000F0B7FF041E03D100F071FF20001F
:1002500010BD0124FBE7C04600200240024A13689B
:10026000013313607047C04620000020014B18681E
:100270007047C0462000002070B50400FFF7F6FF6D
:10028000631C5A1E93410500E418FFF7EFFF401B63
:100290008442FAD870BD000070B58901002814DAD4
:1002A0000F23C0B20340083B114A9B089B009B18D8
:1002B000032210409040FC321500114085408140DF
:1002C000DC69AC432143D96170BD03258308284014
:1002D000A840FC352E00074A9B009B18C022864090
:1002E0002940814092009C58B44321439950EBE748
:1002F00000ED00E000E100E01F2318401E3B8340BA
:10030000014A13607047C04600E100E0F0B5554A6D
:100310000B688218541EA24185B001930023053258
:100320000392019ADA4001D105B0F0BD01259D404C
:10033000019A2A40009200D191E04A689446102226
:10034000644694432200013C022A1FD107240F2750
:100350001C40A400A740DA0892008218166ABE4327
:100360000F69A7403E43166203245E00B4408268D2
:10037000A243CC68B440224382606246D206D20FC8
:100380009A404468AC432243426001E0012CEBD91F
:10039000032634005D00AC406246E4433240AA408C
:1003A000076827403A430260C26814408A68AA403E
:1003B00014436246C460D20051D501252A4C0F2750
:1003C000626B2A431D003540AD00AF406263274A8F
:1003D0009C08A400A418A268BA43A0270292FF05B3
:1003E0000022B84210D0224F0132B8420CD0214F27
:1003F0000132B84208D0204F3200B84204D01F4E1C
:100400000132B04200D0039AAA406746029D2A43B7
:10041000A2601B4A009C1668009DE4433543FF031D
:1004200001D435002540674615605668009D354368
:10043000BF0301D435002540674655609668009D8E
:100440003543FF0201D43500254067469560D568E5
:10045000009E2E43BF0201D425402E00D6600133FA
:100460005FE7C04600E4FFAF00100240000001401B
:100470000004005000080050000C00500010005014
:10048000000401400C22184B10B5D9680A40082A14
:1004900026D00C2A06D0042A1AD11B68DB0621D4E8
:1004A000124810BD8A021248120F825C0902D868F5
:1004B000890F0131C00304D50E485043FFF72EFECB
:1004C000EFE71B68DB0601D50B48F6E70748F4E7C2
:1004D00080205B6800021B045B0F01339840E0E75B
:1004E0000448DEE70448DCE7001002400024F40082
:1004F0007813000800127A0000093D00F0B50500ED
:1005000087B0002802D1012007B0F0BD0C23C24CF7
:10051000E668E2681E4080235B021A40019202688E
:10052000D20741D42B689B0700D587E02B68DB06F8
:1005300028D5002E00D0E1E023689B0502D5EB69A9
:10054000002BE0D06268B5496B6A0A401A436260CA
:1005500061682A6A0902090A12060A436260802257
:100560005B0B013312029A401300E16800200A0677
:10057000AB49120F8A5CD340AA4A136000F01AFEFE
:100580000028C1D12B681B0700D5EEE02B685B0764
:1005900000D510E12B689B0600D595E1AB6A002BD6
:1005A00000D0C4E10020AFE7082E04D00C2E09D102
:1005B000019A002A06D023689B03B3D56B68002BF1
:1005C000B0D1A0E76A689A4211D122681343236030
:1005D000FFF74CFE07008022236892021342A1D14C
:1005E000FFF744FEC01B6428F5D903208CE7A02147
:1005F000C9028A4205D180222168D2020A432260C0
:10060000E3E7216888480140216021680B40059399
:10061000059B864923680B402360002AD8D1FFF749
:1006200025FE0700802223689202134200D179E759
:10063000FFF71CFEC01B6428F4D9D6E72022EB6824
:10064000134203D02168934311432160042E04D048
:100650000C2E25D1019A002A22D12268520702D5F8
:10066000002B00D14FE761682A69714812020140EE
:100670000A430921626022688A4313432360FFF71B
:1006800001FFE368664A1B061B0FD35CD840654B2D
:100690001860002000F08EFD002800D146E733E707
:1006A000002B19D0092122688A4313432360FFF7E6
:1006B000DDFD070004222368134207D062682B691E
:1006C0005B491B020A40134363602FE7FFF7CEFD2F
:1006D000C01B0228EED988E70122236893432360D8
:1006E000FFF7C4FD070004222368134200D11DE771
:1006F000FFF7BCFDC01B0228F5D976E7EB69002B9C
:1007000020D0802322685B0013432360FFF7AEFDF7
:10071000070080222368920013420DD063683F4A8D
:1007200013406A6A1343636062682B6A12021B06F5
:10073000120A1343636025E7FFF798FDC01B0228E8
:10074000E7D952E723683B4A13402360FFF78EFD49
:100750000700802223689200134200D112E7FFF7BE
:1007600085FDC01B0228F4D93FE76A690123002AEE
:1007700010D0226D13432365FFF778FD0700022296
:10078000236D134200D001E7FFF770FDC01B022864
:10079000F5D92AE7226D9A432265FFF767FD070026
:1007A0000222236D134200D1F0E6FFF75FFDC01B6C
:1007B0000228F5D919E780230021A26B5B0501917E
:1007C0001A4204D1A26B1343A36301230193802235
:1007D000194F52003B68134208D08022AB68520088
:1007E00093422BD1226D134323654CE080223B685A
:1007F000520013433B60FFF739FD80235B000290FA
:1008000003933B68039A1342E7D1FFF72FFD029B46
:10081000C01A6428F5D9E8E600100240FF1FFFFF68
:100820006013000800000020FFFFFEFFFFFFFBFF3A
:10083000FFE0FFFFFFFEFFFF00700040002B16D11E
:10084000236D6A4A13402365236D694A134023656B
:10085000FFF70CFD07008022236D920013422AD07F
:10086000FFF704FD634BC01B9842F4D9BDE6A021FD
:10087000C9008B420BD18023216DDB000B43236524
:10088000236D1A432265FFF7F1FC07000EE0236D8C
:10089000564A13402365236D554A1340A4E7FFF7DA
:1008A000E5FC544BC01B984200D99EE68022236D84
:1008B00092001342F3D0019B012B00D06AE6A36B98
:1008C0004D4A1340A36365E6A96901234B4A0029F9
:1008D00018D0A1681943A160616B0B436363802347
:1008E000116A9B010B431362FFF7C0FC0700022251
:1008F000A368134200D051E6FFF7B8FCC01B0228E2
:10090000F5D972E6A1689943A160136A3C490B408E
:100910001362FFF7ABFC07000222A368134200D169
:100920003CE6FFF7A3FCC01B0228F5D95DE60C2EC0
:1009300043D0344A022B2ED12368802613402360F3
:10094000FFF794FC0700B604236833421DD1296BDE
:10095000EB6AE2680B432C490A4013436A6B80251B
:100960001343E360802322685B0413432360FFF793
:100970007DFC0600AD0423682B4200D012E6FFF791
:1009800075FC801B0228F6D92FE6FFF76FFCC01B11
:100990000228D9D929E62368802513402360FFF770
:1009A00065FC0600AD0423682B4200D1FAE5FFF791
:1009B0005DFC801B0228F6D917E68022E368E96A0D
:1009C00052021A4001208A4200D09DE5F022296B94
:1009D00092031A408A4200D096E5C02000040340EA
:1009E000686B181A431E9841C0B28DE5FFFEFFFFE9
:1009F000FFFBFFFF88130000FFFFFFEF0000014037
:100A0000FFDFFFFFFFFFFFFEFFFF02FFF7B5061E40
:100A1000019101D10120FEBD0122514C01992368B1
:100A200013408B4227D3326893072FD4D30735D492
:100A30000123226801991A40914200D281E0326874
:100A4000484C530700D584E0130706D5E2683369A4
:100A50004549DB000A401343E360FFF713FDE368F9
:100A6000424A1B061B0FD35CD840414B1860002044
:100A700000F0A0FBCFE72368019993430B43236069
:100A800023681340019A9A42C4D1CCE7F02035493B
:100A9000CB688343B0680343CB60C7E7314D7268CE
:100AA0002B68022A19D19B03B4D50321EB688B4331
:100AB0001343EB60FFF7DAFB73680700022B19D1D1
:100AC0000C22EB681340082BB2D0FFF7CFFB294B69
:100AD000C01B9842F4D903209DE7032A02D19B0151
:100AE000E3D497E7012A02D15B07DED492E79B05A6
:100AF000DBD48FE7032B0BD10C22EB68134093421E
:100B000096D0FFF7B3FB1B4BC01B9842F4D9E2E72A
:100B1000012B10D00C22EB68134289D0FFF7A6FB03
:100B2000144BC01B9842F5D9D5E7FFF79FFB114B3B
:100B3000C01B9842CFD80C22EB681340042BF4D191
:100B400076E722689A43226022681A4200D061E761
:100B500075E7E36808490B40F1680B43E36073E70E
:100B60000020024000100240FFC7FFFF6013000892
:100B70000000002088130000FFF8FFFF044B054A27
:100B8000DB685B055B0FD35C034A1068D840704795
:100B90000010024070130008000000200F2330B541
:100BA0000324E0250B4A0360D368ED002340436033
:100BB000D368ED3423408360D4682C40C460D3688C
:100BC0000122DB082B400361034B1B6813400B60C1
:100BD00030BDC04600100240002002408022036861
:100BE000D205904208D0154A904205D0144A90424E
:100BF00002D0144A904214D1702293434A6813439E
:100C00008022D205904208D00C4A904205D00C4A6E
:100C1000904202D00B4A904203D10B4A1340CA685B
:100C20001343802293430A69134303608B68C362B2
:100C30000B688362012343617047C0460004004093
:100C40000008014000140140FFFCFFFF012230B505
:100C50007325036A93430362036A44688269AA4363
:100C60000D682A430225AB438D68446082614A685F
:100C70002B434263036230BD1022036A30B59343B5
:100C80000362036A094C4568826914400A681202CB
:100C900022432024A3431C008B6845601B01826112
:100CA0004A6823438263036230BDC046FF8CFFFF66
:100CB0001F2310B5012419408C408A40036AA343C6
:100CC0000362036A1A43026210BD704770B50400E4
:100CD0000120002C14D0250039352B78DBB2002BF5
:100CE00005D12200383213702000FFF7EEFF0223F7
:100CF00020682B70211DFFF771FF012300202B704E
:100D000070BD012203680720D9681143D960996832
:100D10000140062902D019680A431A600020704772
:100D200070B504000120002C14D0250039352B7833
:100D3000DBB2002B05D1220038321370200000F006
:100D400005FA022320682B70211DFFF747FF0123BE
:100D500000202B7070BD10B5040001220068FFF761
:100D6000A7FF072123689A680A40062A03D00122B8
:100D700019680A431A60002010BD10B5FFF7EBFF99
:100D800010BD0000F8B50500022338350C002978A5
:100D900007001800012925D03E00012139362970AD
:100DA00033700C2A1AD81000FFF7AEF9071818187C
:100DB0001D1818182F181818520021003868FFF74E
:100DC00045FF08223B6899690A4304219A619A69A0
:100DD0008A439A619A69E1680A439A610123002073
:100DE00033702870F8BD21003868FFF745FF802276
:100DF0003B68120199690A439A619A6926490A4037
:100E00009A61E26899691202E6E773203B68234918
:100E10001A6A0A401A621A6A5F68D96981432068AF
:100E200001431F481040A2685F601202D9616168E7
:100E30000243D9631A620822D9690A430421DA619C
:100E4000DA698A43DA61DA69E1680A43DA61C5E797
:100E50003B6814491A6A14480A401A621A6A5F68A1
:100E6000D969014020680002014310481040A2687F
:100E70005F601203D9616168024319641A628022BB
:100E8000D96912010A43DA61DA6903490A40DA6171
:100E9000E268D9691202D8E7FFFBFFFFFFFEFFFF00
:100EA000FFFDFFFFFFEFFFFFFF8CFFFFFFDFFFFFF7
:100EB00070477047704770470222036810B5196980
:100EC000040011420DD0D96811420AD0053A1A61C6
:100ED0009B69043202769B075ED0FFF7EAFF00238E
:100EE0002376042223681969114210D0D96811426F
:100EF0000DD0093A1A61073222769A69C0239B0005
:100F000020001A424ED0FFF7D4FF00232376082298
:100F10002368196911420ED0D96811420BD0113AD9
:100F20001A61DB690D32227620009B0740D0FFF763
:100F3000C0FF00232376102223681969114210D0C4
:100F4000D96811420DD0213A1A6119322276DA6934
:100F5000C0239B0020001A4230D0FFF7AAFF0023D5
:100F60002376012223681969114207D0D9681142FA
:100F700004D0033A1A61200000F0D0F84022236820
:100F80001969114207D0D968114204D0813A1A6117
:100F90002000FFF790FF10BDFFF78AFF2000FFF74A
:100FA00089FF9CE7FFF784FF2000FFF783FFACE792
:100FB000FFF77EFF2000FFF77DFFBAE7FFF778FF1E
:100FC0002000FFF777FFCAE770B5040038342278B5
:100FD00003000220012A13D01D0070263935287025
:100FE000186842688368B2430E68496832438026B5
:100FF000B3430B4342608360012300202B702070B9
:1010000070BD000030B595B03822002106A800F070
:1010100093F91422002101A800F08EF91349144A13
:101020000B6800241A4080231B0113430B6002232A
:10103000069310938023DB02129380231022012554
:10104000DB0306A80A92139309951194FFF756FA49
:101050000F232900019301A80C3B029303940494ED
:101060000594FFF7D3FC15B030BDC04600700040BA
:10107000FFE7FFFF70B588B0FFF7DCF8FFF7C2FFAE
:1010800001201026214A0025D16A0143D162D36A8A
:10109000002103400193082202A8019B00F04CF9B3
:1010A0003200002104A800F047F98023184CDB052A
:1010B0002360184B2000E360A660656025616561D0
:1010C000FFF72EFE02A9200002950395FFF77CFF93
:1010D0006023114E04A92A0020000493059606956A
:1010E0000795FFF74FFE200000F03EF82900200092
:1010F000FFF743FE002E06DDA03E236814205E634A
:10110000FFF7BAF8F6E7044EF7E7C04600100240D2
:1011100024000020FF7C00007F3E0000034B02689B
:1011200010B59A4201D1FFF799F810BD00040040B4
:101130000122054B596B0A435A638022996B520571
:101140000A439A637047C046001002408023026839
:10115000DB059A4204D10123024A916B0B4393634E
:101160007047C0460010024010B5040086B014223B
:10117000002101A800F0E0F880232268DB059A42F4
:1011800013D101200A4AD16A0143D162D36A01A96D
:1011900003400093009B2023A02001931E3B029359
:1011A000C00503330593FFF7B1F806B010BDC04684
:1011B0000010024010B5010086B000221020FFF799
:1011C0006BF81020FFF798F80223114A01A8916BE1
:1011D0000B4393636946FFF7E1FCFFF7CFFC0D4C2F
:1011E0000D4B0E4923600E4BE360FEF797FF002383
:1011F0000138606020002361A360FFF767FD0300F2
:101200000120002B02D12000FFF77BFD06B010BDAE
:1012100000100240600000200004004040420F0027
:10122000E70300007047FEE7704770477047000013
:1012300010B50248FFF740FE10BDC0466000002018
:101240008022104B520019680A431A60DA680E496E
:101250000A40DA601A680D490A4001211A609A684A
:101260008A439A601A680A490A401A60DA6809498A
:101270000A40DA6000221A618022074B12059A6048
:101280007047C046001002400C40FF88F6FFF6FE93
:10129000FFFFFBFFFFFF02FF00ED00E00D4885466A
:1012A000002103E00C4B5B58435004310B480C4BBE
:1012B00042189A42F6D30B4A02E00023136004322C
:1012C000094B9A42F9D3FFF7BBFF00F011F8FFF783
:1012D000D1FEFEE7005000208C1300080000002023
:1012E00004000020040000209C000020FEE7000015
:1012F00070B500260C4D0D4C641BA410A64209D1FC
:10130000002600F021F80A4D0A4C641BA410A642E6
:1013100005D170BDB300EB5898470136EEE7B30036
:10132000EB5898470136F2E784130008841300084D
:10133000841300088813000803008218934200D128
:10134000704719700133F9E7F8B5C046F8BC08BC1E
:101350009E467047F8B5C046F8BC08BC9E4670472C
:101360000000000000000000010203040607080955
:101370000000000001020304030406080C101820FA
:041380003000000039
:04138400E900000874
:04138800C100000898
:04138C00000020003D
:040000050800129D40
:00000001FF
